:1000000042C066C065C064C063C062C00FC160C04A
:100010005FC091C25DC0FAC42BC55AC059C058C058
:1000200057C056C055C0000000000000000000048A
:1000300005070000000000000000000000010204AD
:10004000081020408001020408102001020408105A
:100050002040804004040404040404040202020258
:10006000020203030303030302020300000000383B
:10007000003500320000000000370034003100007D
:100080008B006605990011241FBECFE5D4E0DEBFCA
:10009000CDBF10E0A0E6B0E0EEE9F1E102C00590CE
:1000A0000D92AE37B107D9F721E0AEE7B0E001C05D
:1000B0001D92A437B207E1F710E0C2E4D0E003C01C
:1000C0002197FE0123D6C034D107D1F7E6D55BC80E
:1000D00097CF26E040E052EC61E070E083ED90E0E5
:1000E00031D461E082E001D369E070E081EA90E020
:1000F000E8D16AE070E08EE990E0E3D16BE070E077
:100100008BE990E0DED160E082E02BD368EE73E013
:1001100080E090E080C281EA90E03BD18EE990E0FF
:1001200038D18BE990E035D16CE670E08FE790E054
:100130008AC58FE790E020C5CF93DF9383ED90E0F1
:100140003FD3C0918500D0918600892B81F083ED4B
:1001500090E050D3C957DF4F8883809185009091FC
:10016000860001969093860080938500E7CFCA3081
:10017000D1050CF458C02A9709F04AC08091870035
:100180008F3F09F045C0809188008F3F09F040C043
:10019000809189008130E1F5809190008E3FC1F51A
:1001A00060918A0070E0762F662780918B00680F3F
:1001B000711D70936B0060936A0080918C0090E0D9
:1001C000982F882720918D00820F911D90936900B0
:1001D0008093680080918E0090E0982F882720916E
:1001E0008F00820F911D909367008093660081EAD3
:1001F00090E06CD160916800709169008EE990E0A8
:1002000065D160916600709167008BE990E05ED1E6
:100210006CE670E08FE790E02AD51092860010928D
:10022000850010927E00DF91CF9108951F920F926A
:100230000FB60F9211242F933F934F935F936F93B9
:100240007F938F939F93AF93BF93EF93FF9380918F
:10025000A50087FF03C01DBC1CBC1BC02091A500CE
:10026000022E000C330B8091A40090E02817390770
:1002700084F48091A500082E000C990BFC01EE0F70
:10028000FF1F8E0F9F1FFC01EA55FF4F808186FDE7
:1002900015C08091A5008F5F8093A5002091A500D7
:1002A000022E000C330B8091A40090E02817390730
:1002B000BCF48091A5008C302CF112C08091A50077
:1002C000082E000C990BFC01EE0FFF1F8E0F9F1FD5
:1002D000FC01EA55FF4F808160E08F7342D2D9CF95
:1002E0008CB59DB504968838934118F488E893E15D
:1002F00003C08CB59DB504969BBD8ABD8FEF8093DE
:10030000A50036C02CB53DB58091A500082E000C87
:10031000990BFC01EE0FFF1F8E0F9F1FFC01EA558A
:10032000FF4F81819281820F931F9BBD8ABD809177
:10033000A500082E000C990BFC01EE0FFF1F8E0F7D
:100340009F1FFC01EA55FF4F808186FF11C08091FD
:10035000A500082E000C990BFC01EE0FFF1F8E0F5D
:100360009F1FFC01EA55FF4F808161E08F73F9D137
:10037000FF91EF91BF91AF919F918F917F916F917D
:100380005F914F913F912F910F900FBE0F901F9053
:100390001895FC019091A4009C30A0F481E0890F95
:1003A0008093A4009083892F90E0FC01EE0FFF1F43
:1003B0008E0F9F1FFC01EA55FF4F88EB9BE0928355
:1003C000818308958FEF80830895DF92EF92FF92EB
:1003D0000F931F93CF93DF93EC01D62E7A018901FF
:1003E00088818C3008F064C061E08D2D7ED18881D9
:1003F000E82FF0E09F01220F331FE20FF31FEA55B1
:10040000FF4F9D2D9F732081207CD22ED92AD08230
:1004100060E272E0AB014E195F0957FF02C04D5F09
:100420005F4F5595479555954795498340E659E067
:100430009A01201B310B37FF02C02D5F3F4F3595CE
:100440002795359527952A836CE032D49CE0899FC7
:10045000B001112440E050E09A01260F371FF90146
:10046000EE0FFF1F2E0F3F1FF901EA55FF4F90813E
:1004700096FD12C04F5F5F4F4C30510569F78111F7
:100480000BC01FBC82E08EBD1DBC1CBC88B7806148
:1004900088BF89B7806189BFE881F0E0CF01880F0C
:1004A000991FE80FF91FEA55FF4F80818064808310
:1004B0008881DF91CF911F910F91FF90EF90DF9096
:1004C000089520E639E040E252E07FCFFC019081C0
:1004D0009C3080F5818128E830E0281B310987FDB8
:1004E0003395220F331F220F331F621773077CF0DF
:1004F000828128E532E0281B310987FD3395220FE0
:10050000331F220F331F621773070CF49B01225015
:100510003109220F331F4FB7F894892F90E0FC0167
:10052000EE0FFF1F8E0F9F1FFC01EA55FF4F328316
:1005300021834FBF08951F920F920FB60F9211247F
:100540002F933F938F939F93AF93BF938091CB0053
:100550009091CC00A091CD00B091CE003091CA0016
:1005600023E0230F2D3720F40196A11DB11D05C0F6
:1005700026E8230F0296A11DB11D2093CA00809387
:10058000CB009093CC00A093CD00B093CE0080918F
:10059000CF009091D000A091D100B091D2000196EF
:1005A000A11DB11D8093CF009093D000A093D100E6
:1005B000B093D200BF91AF919F918F913F912F91B6
:1005C0000F900FBE0F901F9018953FB7F894809131
:1005D000CF009091D000A091D100B091D20022B76D
:1005E00008B600FE05C02F3F19F00196A11DB11DF0
:1005F0003FBFBA2FA92F982F8827820F911DA11DC9
:10060000B11DBC01CD0142E0660F771F881F991F05
:100610004A95D1F708958F929F92AF92BF92CF9251
:10062000DF92EF92FF926B017C01CFDF4B015C0107
:10063000C114D104E104F104F1F039D3C6DFDC01C7
:10064000CB0188199909AA09BB09883E9340A105E5
:10065000B10570F321E0C21AD108E108F10888EE73
:10066000880E83E0981EA11CB11CC114D104E104C2
:10067000F10421F7DDCFFF90EF90DF90CF90BF9096
:10068000AF909F908F900895789483B7826083BFD6
:1006900083B7816083BF89B7816089BF1EBC8EB577
:1006A00082608EBD8EB581608EBD8FB581608FBD3D
:1006B00085B5846085BD85B5806485BD329A319AE3
:1006C000309A379A1AB80895853039F0873049F052
:1006D000843051F48FB58F7702C08FB58F7D8FBD79
:1006E000089585B58F7D85BD0895CF93DF9390E004
:1006F000FC01E35CFF4F2491FC01EC5AFF4F849115
:10070000882361F190E0880F991FFC01EB58FF4F9F
:10071000C591D491FC01E559FF4FA591B4916111A8
:1007200009C09FB7F8948881209582238883EC9133
:100730002E230BC0623061F49FB7F8943881822F6A
:10074000809583238883EC912E2B2C939FBF06C02A
:100750008FB7F894E8812E2B28838FBFDF91CF913C
:1007600008951F93CF93DF93282F30E0F901EA5DBE
:10077000FF4F8491F901E35CFF4FD491F901EC5AEA
:10078000FF4FC491CC23C1F0162F81119DDFEC2FB8
:10079000F0E0EE0FFF1FE559FF4FA591B4918FB721
:1007A000F894111105C09C91ED2FE095E92302C04A
:1007B000EC91ED2BEC938FBFDF91CF911F910895BA
:1007C000FC01918D228D892F90E0805C9F4F821BD0
:1007D00091098F7399270895FC01918D828D981747
:1007E00031F0828DE80FF11D858D90E008958FEF37
:1007F0009FEF0895FC01918D828D981761F0828D95
:10080000DF01A80FB11D5D968C91928D9F5F9F7344
:10081000928F90E008958FEF9FEF08958DE595E01A
:10082000892B39F080E090E0892B19F046D18111B5
:10083000E7CB0895FC01848DDF01A80FB11DA35AF9
:10084000BF4F2C91848D90E001968F739927848FF0
:10085000A689B7892C93A089B1898C9180648C93E7
:10086000938D848D981306C00288F389E02D8081D2
:100870008F7D80830895CF93DF93EC01888D88234B
:10088000C1F0EA89FB89808185FD05C0A889B98905
:100890008C9186FD0EC00FB607FCF5CF808185FFD9
:1008A000F2CFA889B9898C9185FFEDCFCE01C2DF47
:1008B000E8CFDF91CF910895EF92FF920F931F93AE
:1008C000CF93DF93EC0181E0888F9B8D8C8D981303
:1008D00005C0E889F989808185FD23C0F62E0B8D3E
:1008E00010E00F5F1F4F0F731127E02E8C8DE81261
:1008F0000BC00FB607FCFACFE889F989808185FF24
:10090000F5CFCE0197DFF2CF8B8DFE01E80FF11D01
:10091000E35AFF4FF0820B8FEA89FB898081806266
:1009200007C0EE89FF896083E889F9898081806446
:10093000808381E090E0DF91CF911F910F91FF9034
:10094000EF900895CF92DF92EF92FF921F93CF9393
:10095000DF93EC016A017B01122FE889F98982E0BB
:1009600080834115514E61057105A9F060E079E081
:100970008DE390E0A7019601A7D1DA01C9010197A3
:10098000A109B109B695A79597958795AC01411531
:1009900080E15807A0F0E889F989108260E874E8DE
:1009A0008EE190E0A70196018FD1BA01A9014150D3
:1009B0005109610971097695679557954795EC85B9
:1009C000FD855083EE85FF854083188E1068EC8985
:1009D000FD891083EA89FB89808180618083EA89AF
:1009E000FB89808188608083EA89FB8980818068B7
:1009F0008083EA89FB8980818F7D8083DF91CF911D
:100A00001F91FF90EF90DF90CF9008951F920F926B
:100A10000FB60F9211242F938F939F93EF93FF9311
:100A2000E091E300F091E4008081E091E900F09131
:100A3000EA0082FD12C090818091EC008F5F8F737D
:100A40002091ED00821751F0E091EC00F0E0ED52C2
:100A5000FF4F958F8093EC0001C08081FF91EF9153
:100A60009F918F912F910F900FBE0F901F9018950F
:100A70001F920F920FB60F9211242F933F934F9313
:100A80005F936F937F938F939F93AF93BF93EF93F6
:100A9000FF9383ED90E0CEDEFF91EF91BF91AF9198
:100AA0009F918F917F916F915F914F913F912F9186
:100AB0000F900FBE0F901F90189583ED90E080DE91
:100AC00021E0892B09F420E0822F0895E3EDF0E086
:100AD0001382128288EE93E0A0E0B0E084839583D5
:100AE000A683B78381E790E09183808380E490E0E0
:100AF0009587848729E230E0378726872BE230E02C
:100B0000318B208B2AE230E0338B228B958B848BC8
:100B10008CE290E0978B868B118E128E138E148E42
:100B20000895CF92DF92EF92FF920F931F93CF938E
:100B3000DF936C017A018B01C0E0D0E0CE15DF05B8
:100B400089F0D8016D918D01D601ED91FC91019054
:100B5000F081E02DC6010995892B11F47E0102C0B8
:100B60002196ECCFC701DF91CF911F910F91FF909C
:100B7000EF90DF90CF900895FC018081918161C159
:100B8000CF93DF93EC0188819981009709F059D1C7
:100B9000198218821D821C821B821A82DF91CF91DA
:100BA00008950F931F93CF93DF93EC018B016F5F39
:100BB0007F4F88819981DDD1009731F099838883B7
:100BC0001B830A8381E001C080E0DF91CF911F91F8
:100BD0000F910895CF93DF93EC0188819981892B40
:100BE00029F08A819B818617970758F4CE01D9DFB7
:100BF000882341F08C819D81892B19F4E881F9814A
:100C0000108281E0DF91CF910895EF92FF920F93D0
:100C10001F93CF93DF93EC017B018A01BA01DADFE6
:100C2000811103C0CE01ACDF06C01D830C83B70168
:100C3000888199816AD2CE01DF91CF911F910F9166
:100C4000FF90EF900895FC011182108213821282AE
:100C5000158214826115710549F0FB010190002095
:100C6000E9F73197AF01461B570BCFCF0895CF93CC
:100C7000DF93EC016115710551F0FB01019000203B
:100C8000E9F73197AF01461B570BBFDF01C078DF93
:100C9000CE01DF91CF9108950895F6DCFDDF19DADA
:100CA000CEE0D4E049DA2097E9F3B8DDFBCF089530
:100CB000991B79E004C0991F961708F0961B881FAE
:100CC0007A95C9F780950895A1E21A2EAA1BBB1B3D
:100CD000FD010DC0AA1FBB1FEE1FFF1FA217B30708
:100CE000E407F50720F0A21BB30BE40BF50B661F1E
:100CF000771F881F991F1A9469F7609570958095E2
:100D000090959B01AC01BD01CF010895EE0FFF1F2F
:100D10000590F491E02D0994CF93DF9382309105F3
:100D200010F482E090E0E0917201F091730120E014
:100D300030E0C0E0D0E0309711F140815181481798
:100D40005907C0F04817590761F4828193812097B1
:100D500019F09B838A832BC0909373018093720157
:100D600026C02115310519F04217530718F49A01CE
:100D7000BE01DF01EF010280F381E02DDCCF211500
:100D8000310509F1281B390B2430310590F41296F6
:100D90008D919C9113976115710521F0FB0193834F
:100DA000828304C09093730180937201FD01329697
:100DB00044C0FD01E20FF31F81939193225031094A
:100DC0002D933C933AC02091700130917101232BF7
:100DD00041F42091620030916300309371012093BF
:100DE000700120916000309161002115310541F4BE
:100DF0002DB73EB74091640050916500241B350B20
:100E0000E0917001F0917101E217F307A0F42E1B3D
:100E10003F0B2817390778F0AC014E5F5F4F24175E
:100E2000350748F04E0F5F1F5093710140937001DA
:100E30008193919302C0E0E0F0E0CF01DF91CF9188
:100E400008950F931F93CF93DF93009709F48CC0FD
:100E5000FC0132971382128200917201109173018A
:100E60000115110581F420813181820F931F20919A
:100E70007001309171012817390779F5F0937101EC
:100E8000E093700171C0D80140E050E0AE17BF0799
:100E900050F412962D913C911397AD012115310517
:100EA00009F1D901F3CF9D01DA01338322836081F7
:100EB0007181860F971F8217930769F4EC012881CF
:100EC0003981260F371F2E5F3F4F318320838A8160
:100ED0009B8193838283452B29F4F0937301E093E4
:100EE000720142C01396FC93EE931297ED01499163
:100EF00059919E01240F351FE217F30771F4808189
:100F00009181840F951F029611969C938E938281F6
:100F1000938113969C938E931297E0E0F0E0D801B2
:100F200012968D919C911397009719F0F8018C01FE
:100F3000F6CF8D919C9198012E5F3F4F820F931FAA
:100F400020917001309171012817390769F43097A9
:100F500029F4109273011092720102C0138212825E
:100F60001093710100937001DF91CF911F910F9148
:100F70000895A0E0B0E0EEEBF7E0D2C0EC010097FE
:100F800019F4CB01C9DEB4C0FC01E60FF71F9C01C8
:100F900022503109E217F30708F4A8C0D9010D91D6
:100FA0001C91119706171707A8F00530110508F4D2
:100FB0009BC0C80104978617970708F495C0025094
:100FC0001109061B170B019311936D937C93CF01AD
:100FD00038DF8AC05B01A01AB10A4C01800E911E55
:100FE000A0917201B091730140E050E0E12CF12C2E
:100FF000109709F44AC0A815B905D1F56D907C90F9
:101000001197630182E0C80ED11CCA14DB0480F181
:10101000A3014A195B096A0182E0C80ED11C12962D
:10102000BC9012971396AC91B5E0CB16D10440F06A
:10103000B282A38351834083D9016D937C930AC00C
:101040000E5F1F4FC301800F911FF90191838083B1
:10105000EB2DFA2FE114F10431F0D7011396FC9334
:10106000EE93129741C0F0937301E09372013CC07C
:101070008D919C9111974817590708F4AC017D0197
:1010800012960D90BC91A02DB3CF809170019091DC
:10109000710188159905E1F446175707C8F4809146
:1010A000600090916100009741F48DB79EB7409128
:1010B000640050916500841B950BE817F907B0F4A4
:1010C000F0937101E0937001F901718360830CC0AA
:1010D000CB0122DE7C01009749F0A801BE010CD0B3
:1010E000CE01AFDEC70104C0CE0102C080E090E0B7
:1010F000CDB7DEB7EEE030C0FB01DC0102C00190ED
:101100000D9241505040D8F70895FB01DC01019049
:101110000D920020E1F708952F923F924F925F9237
:101120006F927F928F929F92AF92BF92CF92DF92F7
:10113000EF92FF920F931F93CF93DF93CDB7DEB75C
:10114000CA1BDB0B0FB6F894DEBF0FBECDBF0994F0
:101150002A88398848885F846E847D848C849B8447
:10116000AA84B984C884DF80EE80FD800C811B8155
:10117000AA81B981CE0FD11D0FB6F894DEBF0FBE84
:10118000CDBFED01089510E0C2E4D0E003C0FE0140
:0E119000BDDD2196C334D107D1F7F894FFCF0F
:10119E00000074018000DC05DC05DC0500000000A9
:0E11AE00005C049105E003FA03EC033B04002F
:101E000001C0B2C011248FE594E09EBF8DBF84B79E
:101E1000882349F0982F9A70923029F081FF02C0F0
:101E200097EF94BFCFD085E08EBD82E08BB988E17B
:101E30008AB986E880BD80E189B98EE0B0D0BD9ACC
:101E400084E040E35CEF34E020E25DBD4CBD38BF90
:101E500008B602FEFDCF98B3922798BBA895815093
:101E6000A1F7C0E0D0E094D0813471F491D0182F64
:101E70009AD0123811F482E005C0113811F486E0CE
:101E800001C083E081D06DC0823411F484E103C0CD
:101E9000853419F485E08FD064C0853541F478D05D
:101EA000C82F76D0D0E0D82BCC0FDD1F59C0863597
:101EB00021F484E080D080E0E5CF8436A1F568D0BD
:101EC00067D0182F65D0D82E012F90E6E92EF12C7F
:101ED0005FD0F70181937F010150D1F764D0F5E421
:101EE000DF1201C0FFCF40E050E063E0CE013CD004
:101EF0006E0180E6E82EF12CF7014081818150E0EF
:101F0000582B61E0C60130D0F2E0CF0ED11C125048
:101F100082E0E80EF11C1111EFCF40E050E065E0E7
:101F2000CE0122D01EC0843771F432D031D0F82EC9
:101F30002FD039D08E01F80185918F0125D0FA94E8
:101F4000F110F9CF0EC0853739F42DD08EE11CD0B9
:101F500083E91AD087E096CF813511F488E01FD04D
:101F600022D080E111D07FCFFC010A0167BFE89544
:101F7000112407B600FCFDCF667029F0452B19F43B
:101F800081E187BFE89508955D9BFECF8CB90895E8
:101F90005F9BFECF5C9901C0A8958CB1089598E134
:101FA00091BD81BD0895F4DF803219F088E0F7DF3C
:101FB000FFCF84E1E9CFCF93C82FEADFC150E9F723
:101FC000CF91F1CF282E80E0EADFE0E0FF270994EF
:021FFE000206D9
:0400000300001E00DB
:00000001FF
